:020000040000FA
:0300000002086A89
:10080000E4F508F50912087612085712087DC2931C
:10081000E4F508F5092087F8AE08AF09EE3395E056
:10082000FDFC7BA07A8679017800D3120841400A4A
:100830000509E50970E2050880DE2087D3B29380C0
:10084000CFEB9FF5F0EA9E42F0E99D42F0EC648028
:10085000C864809845F02275E10175E24075F1FFAA
:1008600043A41075F2FF43A50822787FE4F6D8FD73
:0E08700075810902080043B20375EF042222CD
:00000001FF
